{
  "_format": "hh-sol-artifact-1",
  "contractName": "Pujas",
  "sourceName": "contracts/pujas.sol",
  "abi": [
    {
      "inputs": [],
      "name": "numeroDePujas",
      "outputs": [
        {
          "internalType": "uint256",
          "name": "",
          "type": "uint256"
        }
      ],
      "stateMutability": "view",
      "type": "function"
    },
    {
      "inputs": [
        {
          "internalType": "uint256",
          "name": "index",
          "type": "uint256"
        }
      ],
      "name": "obtenerPuja",
      "outputs": [
        {
          "internalType": "address",
          "name": "",
          "type": "address"
        },
        {
          "internalType": "uint256",
          "name": "",
          "type": "uint256"
        },
        {
          "internalType": "string",
          "name": "",
          "type": "string"
        }
      ],
      "stateMutability": "view",
      "type": "function"
    },
    {
      "inputs": [
        {
          "internalType": "uint256",
          "name": "",
          "type": "uint256"
        }
      ],
      "name": "pujas",
      "outputs": [
        {
          "internalType": "address",
          "name": "arrendatario",
          "type": "address"
        },
        {
          "internalType": "uint256",
          "name": "monto",
          "type": "uint256"
        },
        {
          "internalType": "string",
          "name": "moneda",
          "type": "string"
        }
      ],
      "stateMutability": "view",
      "type": "function"
    },
    {
      "inputs": [
        {
          "internalType": "address",
          "name": "_arrendatario",
          "type": "address"
        },
        {
          "internalType": "uint256",
          "name": "_monto",
          "type": "uint256"
        },
        {
          "internalType": "string",
          "name": "_moneda",
          "type": "string"
        }
      ],
      "name": "registrarPuja",
      "outputs": [],
      "stateMutability": "nonpayable",
      "type": "function"
    }
  ],
  "bytecode": "0x608060405234801561001057600080fd5b50610ab4806100206000396000f3fe608060405234801561001057600080fd5b506004361061004c5760003560e01c8063bbbfc86b14610051578063e7f2f15414610083578063f147a9461461009f578063fec7e19c146100d1575b600080fd5b61006b6004803603810190610066919061043b565b6100ef565b60405161007a93929190610548565b60405180910390f35b61009d600480360381019061009891906106e7565b610233565b005b6100b960048036038101906100b4919061043b565b610303565b6040516100c893929190610548565b60405180910390f35b6100d96103e5565b6040516100e69190610756565b60405180910390f35b6000806060600080858154811061010957610108610771565b5b90600052602060002090600302016040518060600160405290816000820160009054906101000a900473ffffffffffffffffffffffffffffffffffffffff1673ffffffffffffffffffffffffffffffffffffffff1673ffffffffffffffffffffffffffffffffffffffff16815260200160018201548152602001600282018054610192906107cf565b80601f01602080910402602001604051908101604052809291908181526020018280546101be906107cf565b801561020b5780601f106101e05761010080835404028352916020019161020b565b820191906000526020600020905b8154815290600101906020018083116101ee57829003601f168201915b5050505050815250509050806000015181602001518260400151935093509350509193909250565b600060405180606001604052808573ffffffffffffffffffffffffffffffffffffffff168152602001848152602001838152509050600081908060018154018082558091505060019003906000526020600020906003020160009091909190915060008201518160000160006101000a81548173ffffffffffffffffffffffffffffffffffffffff021916908373ffffffffffffffffffffffffffffffffffffffff1602179055506020820151816001015560408201518160020190816102fa91906109ac565b50505050505050565b6000818154811061031357600080fd5b90600052602060002090600302016000915090508060000160009054906101000a900473ffffffffffffffffffffffffffffffffffffffff1690806001015490806002018054610362906107cf565b80601f016020809104026020016040519081016040528092919081815260200182805461038e906107cf565b80156103db5780601f106103b0576101008083540402835291602001916103db565b820191906000526020600020905b8154815290600101906020018083116103be57829003601f168201915b5050505050905083565b60008080549050905090565b6000604051905090565b600080fd5b600080fd5b6000819050919050565b61041881610405565b811461042357600080fd5b50565b6000813590506104358161040f565b92915050565b600060208284031215610451576104506103fb565b5b600061045f84828501610426565b91505092915050565b600073ffffffffffffffffffffffffffffffffffffffff82169050919050565b600061049382610468565b9050919050565b6104a381610488565b82525050565b6104b281610405565b82525050565b600081519050919050565b600082825260208201905092915050565b60005b838110156104f25780820151818401526020810190506104d7565b60008484015250505050565b6000601f19601f8301169050919050565b600061051a826104b8565b61052481856104c3565b93506105348185602086016104d4565b61053d816104fe565b840191505092915050565b600060608201905061055d600083018661049a565b61056a60208301856104a9565b818103604083015261057c818461050f565b9050949350505050565b61058f81610488565b811461059a57600080fd5b50565b6000813590506105ac81610586565b92915050565b600080fd5b600080fd5b7f4e487b7100000000000000000000000000000000000000000000000000000000600052604160045260246000fd5b6105f4826104fe565b810181811067ffffffffffffffff82111715610613576106126105bc565b5b80604052505050565b60006106266103f1565b905061063282826105eb565b919050565b600067ffffffffffffffff821115610652576106516105bc565b5b61065b826104fe565b9050602081019050919050565b82818337600083830152505050565b600061068a61068584610637565b61061c565b9050828152602081018484840111156106a6576106a56105b7565b5b6106b1848285610668565b509392505050565b600082601f8301126106ce576106cd6105b2565b5b81356106de848260208601610677565b91505092915050565b600080600060608486031215610700576106ff6103fb565b5b600061070e8682870161059d565b935050602061071f86828701610426565b925050604084013567ffffffffffffffff8111156107405761073f610400565b5b61074c868287016106b9565b9150509250925092565b600060208201905061076b60008301846104a9565b92915050565b7f4e487b7100000000000000000000000000000000000000000000000000000000600052603260045260246000fd5b7f4e487b7100000000000000000000000000000000000000000000000000000000600052602260045260246000fd5b600060028204905060018216806107e757607f821691505b6020821081036107fa576107f96107a0565b5b50919050565b60008190508160005260206000209050919050565b60006020601f8301049050919050565b600082821b905092915050565b6000600883026108627fffffffffffffffffffffffffffffffffffffffffffffffffffffffffffffffff82610825565b61086c8683610825565b95508019841693508086168417925050509392505050565b6000819050919050565b60006108a96108a461089f84610405565b610884565b610405565b9050919050565b6000819050919050565b6108c38361088e565b6108d76108cf826108b0565b848454610832565b825550505050565b600090565b6108ec6108df565b6108f78184846108ba565b505050565b5b8181101561091b576109106000826108e4565b6001810190506108fd565b5050565b601f8211156109605761093181610800565b61093a84610815565b81016020851015610949578190505b61095d61095585610815565b8301826108fc565b50505b505050565b600082821c905092915050565b600061098360001984600802610965565b1980831691505092915050565b600061099c8383610972565b9150826002028217905092915050565b6109b5826104b8565b67ffffffffffffffff8111156109ce576109cd6105bc565b5b6109d882546107cf565b6109e382828561091f565b600060209050601f831160018114610a165760008415610a04578287015190505b610a0e8582610990565b865550610a76565b601f198416610a2486610800565b60005b82811015610a4c57848901518255600182019150602085019450602081019050610a27565b86831015610a695784890151610a65601f891682610972565b8355505b6001600288020188555050505b50505050505056fea26469706673582212203bc716126d8499fee29ab6f81d585e2c8877ac47893390ce9aa594f3a06a8a2664736f6c63430008140033",
  "linkReferences": {},
  "deployedLinkReferences": {}
}